:020000040800F2
:1000000008150020B10100080D0F00080F0F0008AF
:10001000130F0008170F00081B0F00080000000056
:100020000000000000000000000000001F0F00089A
:10003000210F000800000000C7010008230F00087E
:10004000CB010008CB010008CB010008CB01000860
:10005000CB010008CB010008CB010008CB01000850
:10006000CB010008CB010008CB010008CB01000840
:10007000CB010008CB010008CB010008CB01000830
:10008000CB010008CB010008CB010008CB01000820
:10009000CB010008CB010008CB010008CB01000810
:1000A000CB010008CB010008CB010008CB01000800
:1000B000CB010008CB010008CB010008CB010008F0
:1000C000CB010008CB010008CB010008CB010008E0
:1000D000CB010008CB010008CB010008CB010008D0
:1000E000CB010008CB010008CB010008CB010008C0
:1000F000CB010008CB010008CB010008CB010008B0
:10010000CB010008CB010008CB010008CB0100089F
:10011000CB010008CB010008CB010008CB0100088F
:10012000CB010008CB010008CB010008CB0100087F
:10013000CB010008CB010008CB010008CB0100086F
:10014000CB010008CB010008CB010008CB0100085F
:10015000CB010008CB010008CB010008CB0100084F
:10016000CB010008CB010008CB010008CB0100083F
:10017000CB010008CB010008CB010008CB0100082F
:10018000CB010008CB010008CB010008CB0100081F
:10019000CB010008CB010008DFF810D000F0C4FE4E
:1001A00000480047830E0008AFF3008008150020C8
:1001B0000648804706480047FEE7FEE7FEE7FEE701
:1001C000FEE7FEE7FEE7FEE7FEE7FEE79D0200082A
:1001D0009901000810B50020002100227E4B1B6809
:1001E00043F480337C4C236000BF7B4B1B68C3F31C
:1001F0004041521C11B9B2F5004FF6D1764B1B6845
:10020000C3F3404119B9754B754C236010BD754B54
:100210001B6823F00703734C236023461B6843F0DD
:10022000040323606C4B5B686B4C636023465B6824
:1002300043F40053636023465B6843F4A063636048
:1002400023465B68684C2340634C636023465868D0
:1002500040F4803000BF654B1843234658601B684C
:1002600043F08073236000BF5B4B1B6803F0007397
:10027000002BF9D0584B5B6823F00303564C6360A6
:1002800023465B6843F00203636000BF524B5B6828
:1002900003F00C03082BF9D100BFB7E710B55448A1
:1002A000006840F47000524908604B48006840F014
:1002B000010049490860084640684E4908404649DF
:1002C0004860084600684C490840434908600846B1
:1002D000006820F4802008600846406847490840CC
:1002E0003D4948604FF46050C8624FF46150086364
:1002F0004FF41F0088600846C06940F08050C86114
:100300003F48C06840F001003D49C8603248C069BC
:1003100020F080503049C8613248006840F09000B9
:1003200030490860FFF756FF4FF0006030498039D0
:10033000086010BD10B5002100200022264B5B682C
:1003400003F00C0121B1042906D0082932D107E0BD
:10035000224B234C236031E0204B214C23602DE0C5
:100360001D4B5B68274C03EA04001B4B5B6803F4DE
:10037000803200F000631BB9022303EB904004E0DD
:100380004FF4F873C3EB9043581C22B91E4B434300
:10039000134C23600DE0104B5B6803F4003323B172
:1003A000194B43430E4C236003E00C4B43430C4C6E
:1003B000236003E0094B0A4C236000BF00BF064BDB
:1003C0005B68C3F30313114CE15C054B1B68CB4026
:1003D000034C236010BD00000010024000127A00A0
:1003E0000000002000200240FFFFC0F700000408CA
:1003F00088ED00E000C0FFF8FFFFF6FEFFFF00F70A
:100400000070004000003C0800093D006A0F000831
:1004100010B50446FC48844208D10121042000F0B4
:1004200086FC0021042000F082FC2EE0F748844284
:1004300008D10121082000F07AFC0021082000F0FA
:1004400076FC22E0F248844208D10121102000F01D
:100450006EFC0021102000F06AFC16E0ED4884429A
:1004600008D10121202000F062FC0021202000F0B2
:100470005EFC0AE0E848844207D10121402000F0F8
:1004800056FC0021402000F052FC10BD10B50121A7
:10049000084600F04CFC0021012000F048FC10BD93
:1004A0002DE9F0410246002500260020002300240B
:1004B000002791F803C00CF00F0591F803C00CF071
:1004C000100CBCF1000F03D091F802C04CEA0505F6
:1004D00091F800C0BCF1000F31D0146800202BE06F
:1004E0004FF0010C0CFA00F3B1F800C00CEA03065F
:1004F0009E4220D183004FF00F0C0CFA03F7BC434F
:1005000005FA03FC4CEA040491F803C0BCF1280F7F
:1005100006D14FF0010C0CFA00FCC2F814C00AE03E
:1005200091F803C0BCF1480F05D14FF0010C0CFA53
:1005300000FCC2F810C0401C0828D1D31460B1F8E8
:1005400000C0BCF1FF0F34DD546800202EE000F144
:10055000080C4FF0010808FA0CF3B1F800C00CEADF
:1005600003069E4221D183004FF00F0C0CFA03F7D3
:10057000BC4305FA03FC4CEA040491F803C0BCF147
:10058000280F05D100F1080C08FA0CF8C2F8148005
:1005900091F803C0BCF1480F07D100F1080C4FF0EF
:1005A000010808FA0CF8C2F81080401C0828CED3C5
:1005B0005460BDE8F0814FF6FF7101800121817028
:1005C0000421C17070470246002093680B400BB1B4
:1005D000012000E0002070470146886880B2704723
:1005E00002460020D3680B400BB1012000E0002040
:1005F00070470146C86880B2704701617047016169
:100600007047416170470AB1016100E04161704784
:10061000C16070474FF480320A4382618161826118
:10062000826982697047024600207C4B18684FF649
:100630008073184040EA02100843784B18607047F6
:100640007749C8617047F0B502460C460023002682
:1006500000210025002002F08047B7F1804F02D131
:100660006E4F396A11E002F00057B7F1005F02D116
:100670006A4F796A09E002F08057B7F1805F02D1D2
:10068000664FB96A01E0654F7968C2F3034593B2DA
:10069000644F1740B7F5401F0AD121F070615F4FDA
:1006A0007F6827F07067DFF874C1CCF80470CEE083
:1006B00002F48017B7F5801F13D102F40017B7F5C5
:1006C000001F03D10327AF403E0402E0032707FACF
:1006D00005F6B14302F0E047002FE8D141F0706128
:1006E000B5E002F08077B7F1807F47D102F00407D0
:1006F000042F29D102F00077B7F1007F16D1C2F3A1
:1007000040573F0103FA07F7B9433CB1434F7868BC
:1007100040F0010040F07060786098E03F4F7868EA
:1007200020F0010040F07060786090E0C2F3405724
:100730003F0103FA07F7B943384F786820F001000A
:1007400040F07060786082E043F00407C2F3405CE0
:100750004FEA0C1C07FA0CF7B9433CB12F4F7868ED
:1007600040F0010040F07060786070E02B4F7868D6
:1007700020F0010040F07060786068E002F080676F
:10078000B7F1806F58D102F00807082F29D102F085
:100790000077B7F1007F16D1C2F340573F0103FA4B
:1007A00007F7B9433CB11D4F786840F0080040F0AE
:1007B000706078604BE0194F786820F0080040F0D6
:1007C0007060786043E0C2F340573F0103FA07F7D7
:1007D000B943124F786820F0080040F070607860EC
:1007E00035E043F00807C2F3405C4FEA0C1C07FAFF
:1007F0000CF7B943C4B1094F786840F0080040F0E5
:100800007060786023E0000000080140000C0140A7
:100810000010014000140140001801400000014098
:100820000000204200003070304F786820F008004F
:1008300040F0706078600AE0C2F340573F0103FA6D
:1008400007F7B94302F0E0470FB941F070612CB1EE
:10085000C2F340573F0103FA07F7394302F08047DC
:10086000B7F1804F02D1214F396211E002F00057F9
:10087000B7F1005F02D11D4F796209E002F08057A5
:10088000B7F1805F02D1194FB96201E0174F79606B
:10089000F0BD30B500228B071C0F0F2303FA04F2C2
:1008A000124B08338C1053F8243093430F4C083408
:1008B0008D1044F8253023468C1053F824308C07D3
:1008C000240F00FA04F42343084C08348D1044F834
:1008D000253030BD0549496821F40001034A5160C3
:1008E0001146496801435160704700000000014013
:1008F000F848006840F00100F64908600846406882
:10090000F5490840F349486008460068F349084043
:10091000F04908600846006820F480200860084616
:100920004068EF490840EB4948604FF46050C862A6
:100930004FF4615008634FF41F0088607047E54929
:10094000096821F48031E34A11601146096821F4F5
:1009500080211160B0F5803F03D0B0F5802F0ED11B
:1009600006E0DC49096841F48031DA4A116007E0A9
:10097000D849096841F4A021D64A116000E000BFBF
:1009800000BF704710B501460022002300204A1125
:10099000012A02D1CF4C236806E0022A02D1CD4CB5
:1009A000236A01E0CB4C636A01F01F0201249440EA
:1009B0001C400CB1012000E0002010BD38B5002023
:1009C00000900024002500BF3120FFF7DBFF054623
:1009D0000098401C00900098B0F5004F01D0002D09
:1009E000F2D03120FFF7CEFF08B1012400E000244F
:1009F000204638BD01460020B64A106820F0F800B5
:100A000040EAC10010607047B6490860704702466E
:100A10000020B04B5868B44B184042EA0103184319
:100A2000AC4B58607047AF490866704701460020DC
:100A3000A84A506820F00300084350607047A5485A
:100A4000406800F00C00704701460020A14A506841
:100A500020F0F000084350607047014600209D4A96
:100A6000506820F4E0600843506070470146002061
:100A7000984A506820F4605040EAC10050607047C6
:100A800029B1944A527A0243924B5A7204E0914A35
:100A9000527A82438F4B5A7270479249D83108601C
:100AA0004108904AC2F8DC10704701460020894A8C
:100AB000D06A20F000500843D06270470146002001
:100AC000844AD06A20F0F8500843D062704702464A
:100AD0000020804BD86A20F4806020F478401043D6
:100AE0000843D8627047024600207A4BD86A20F447
:100AF000F87009B1104302E0104320F48070754B88
:100B0000D862704701460020724AD06A20F00F0078
:100B10000843D0627047024600206E4B186B20F4E9
:100B2000003020F47840104308431863704730B118
:100B30006849096B41F48021664A116305E0654903
:100B4000096B21F48021634A116370470021614AD7
:100B5000203211705F4A82F82010012802D0042848
:100B60000AD104E001215B4A2032117005E0052121
:100B7000584A2032117000E000BF00BF70475B4947
:100B8000086070475349096A21F44071514A116263
:100B90001146096A0143116270475449443908609B
:100BA0007047F0B5002100BF002200250024494E07
:100BB00076684F4F06EA0702464E766806F480359F
:100BC00002F000661EB9022606EB924204E04FF4E2
:100BD000F876C6EB9246721C1DB9464E02FB06F330
:100BE0000BE03C4E766806F400361EB1414E02FB27
:100BF00006F302E0404E02FB06F3364E766806F03E
:100C00000C0121B1042905D0082908D105E03A4E8C
:100C1000066007E0384E066004E0036002E0364EEE
:100C2000066000BF00BF2B4E766806F0F001090990
:100C3000324E745C0668E6404660264E766806F4DE
:100C4000E061090A2D4E745C4668E6408660214EDC
:100C5000766806F46051C90A284E745C4668E6401E
:100C6000C6601C4EF66A06F00F01254E745C46689D
:100C7000B6FBF4F64661174EF66A06F4F8710909F8
:100C800001F00F061F4F37F81640B3FBF4F606616C
:100C9000F0BD29B10F4A526902430E4B5A6104E07C
:100CA0000C4A526982430B4B5A61704729B1094A79
:100CB00092690243074B9A6104E0064A92698243B3
:100CC000044B9A617047F9B1024AD2690243014B61
:100CD000DA611EE00010024000C0FFF8FFFFF6FEE0
:100CE000FFFF00F700004242FFFFC0F780044242CE
:100CF00000003C0800093D0000127A007A0F00084D
:100D00008A0F00089A0F0008364AD2698243354B91
:100D1000DA61704729B1334A926A0243314B9A62D1
:100D200004E0304A926A82432E4B9A62704729B19E
:100D30002C4AD26802432B4BDA6004E0294AD2687D
:100D40008243284BDA60704729B1264A1269024370
:100D5000244B1A6104E0234A12698243214B1A6131
:100D6000704730B11F49096B41F040011D4A1163C2
:100D700005E01C49096B21F040011A4A11637047D4
:100D80001949086070471949C86470470146002036
:100D9000144A506820F07040084350607047014684
:100DA0000020104A506820F0E06040EA0160506086
:100DB00070470C48406A40F080700A494862084613
:100DC000406A20F080704862704701460020054A62
:100DD00092680A400AB1012000E0002070470149F2
:100DE00088727047001002404004424200004242B4
:100DF00000E0401E0028FCD1704738B504460D467F
:100E00003B48844204D101210420FFF74FFF1EE03C
:100E10003848844204D101210820FFF747FF16E03B
:100E20003548844204D101211020FFF73FFF0EE036
:100E30003248844204D101212020FFF737FF06E029
:100E40002F48844203D101214020FFF72FFFB5F541
:100E5000803F0BDAADF8005010208DF8030003201E
:100E60008DF8020069462046FFF71AFB38BD016184
:100E700070474161704701617047C2684A40C26073
:100E800070474FF480711A48FFF7B7FF20211948C7
:100E9000FFF7B3FF01210846FFF708FF01211948BA
:100EA000FFF7D1FB10211348FFF7A7FF4FF4807124
:100EB0000F48FFF7DCFF1AE04FF480710C48FFF792
:100EC000DCFF30210B48FFF7D4FF0F48FFF790FFFE
:100ED0004FF480710648FFF7CEFF0B48FFF788FFFD
:100EE00030210448FFF7C3FF0748FFF781FFE3E71E
:100EF00000080140000C01400010014000140140B6
:100F00000018014000013000FFFF2800704700BFBB
:100F1000FEE700BFFEE700BFFEE700BFFEE7704749
:100F20007047704770470000064C074D06E0E068C8
:100F300040F0010394E8070098471034AC42F6D320
:100F4000FFF72EF9BC0F0008DC0F000802E008C80C
:100F5000121F08C1002AFAD170477047002001E033
:100F600001C1121F002AFBD17047000000000000E1
:100F70000000010203040607080900000000010246
:100F80000304010203040607080901020406080A13
:100F90000C1020202020202020200100020004002E
:100FA000060008000A000C0010002000400080002D
:100FB000000100010001000100010000DC0F000839
:100FC00000000020040000004C0F0008E00F0008A3
:100FD00004000020041500005C0F00080044950880
:040000050800019955
:00000001FF
